{
  "contractName": "Crops",
  "abi": [
    {
      "inputs": [],
      "stateMutability": "nonpayable",
      "type": "constructor"
    },
    {
      "anonymous": false,
      "inputs": [
        {
          "indexed": true,
          "internalType": "address",
          "name": "account",
          "type": "address"
        },
        {
          "indexed": true,
          "internalType": "address",
          "name": "operator",
          "type": "address"
        },
        {
          "indexed": false,
          "internalType": "bool",
          "name": "approved",
          "type": "bool"
        }
      ],
      "name": "ApprovalForAll",
      "type": "event"
    },
    {
      "anonymous": false,
      "inputs": [
        {
          "indexed": true,
          "internalType": "address",
          "name": "operator",
          "type": "address"
        },
        {
          "indexed": true,
          "internalType": "address",
          "name": "from",
          "type": "address"
        },
        {
          "indexed": true,
          "internalType": "address",
          "name": "to",
          "type": "address"
        },
        {
          "indexed": false,
          "internalType": "uint256[]",
          "name": "ids",
          "type": "uint256[]"
        },
        {
          "indexed": false,
          "internalType": "uint256[]",
          "name": "values",
          "type": "uint256[]"
        }
      ],
      "name": "TransferBatch",
      "type": "event"
    },
    {
      "anonymous": false,
      "inputs": [
        {
          "indexed": true,
          "internalType": "address",
          "name": "operator",
          "type": "address"
        },
        {
          "indexed": true,
          "internalType": "address",
          "name": "from",
          "type": "address"
        },
        {
          "indexed": true,
          "internalType": "address",
          "name": "to",
          "type": "address"
        },
        {
          "indexed": false,
          "internalType": "uint256",
          "name": "id",
          "type": "uint256"
        },
        {
          "indexed": false,
          "internalType": "uint256",
          "name": "value",
          "type": "uint256"
        }
      ],
      "name": "TransferSingle",
      "type": "event"
    },
    {
      "anonymous": false,
      "inputs": [
        {
          "indexed": false,
          "internalType": "string",
          "name": "value",
          "type": "string"
        },
        {
          "indexed": true,
          "internalType": "uint256",
          "name": "id",
          "type": "uint256"
        }
      ],
      "name": "URI",
      "type": "event"
    },
    {
      "inputs": [],
      "name": "CARROT",
      "outputs": [
        {
          "internalType": "uint256",
          "name": "",
          "type": "uint256"
        }
      ],
      "stateMutability": "view",
      "type": "function"
    },
    {
      "inputs": [],
      "name": "CORN",
      "outputs": [
        {
          "internalType": "uint256",
          "name": "",
          "type": "uint256"
        }
      ],
      "stateMutability": "view",
      "type": "function"
    },
    {
      "inputs": [],
      "name": "GOLDEN_CARROT",
      "outputs": [
        {
          "internalType": "uint256",
          "name": "",
          "type": "uint256"
        }
      ],
      "stateMutability": "view",
      "type": "function"
    },
    {
      "inputs": [],
      "name": "POTATO",
      "outputs": [
        {
          "internalType": "uint256",
          "name": "",
          "type": "uint256"
        }
      ],
      "stateMutability": "view",
      "type": "function"
    },
    {
      "inputs": [],
      "name": "RAINBOW_CORN",
      "outputs": [
        {
          "internalType": "uint256",
          "name": "",
          "type": "uint256"
        }
      ],
      "stateMutability": "view",
      "type": "function"
    },
    {
      "inputs": [],
      "name": "SPROUTING_POTATO",
      "outputs": [
        {
          "internalType": "uint256",
          "name": "",
          "type": "uint256"
        }
      ],
      "stateMutability": "view",
      "type": "function"
    },
    {
      "inputs": [
        {
          "internalType": "address",
          "name": "account",
          "type": "address"
        },
        {
          "internalType": "uint256",
          "name": "id",
          "type": "uint256"
        }
      ],
      "name": "balanceOf",
      "outputs": [
        {
          "internalType": "uint256",
          "name": "",
          "type": "uint256"
        }
      ],
      "stateMutability": "view",
      "type": "function"
    },
    {
      "inputs": [
        {
          "internalType": "address[]",
          "name": "accounts",
          "type": "address[]"
        },
        {
          "internalType": "uint256[]",
          "name": "ids",
          "type": "uint256[]"
        }
      ],
      "name": "balanceOfBatch",
      "outputs": [
        {
          "internalType": "uint256[]",
          "name": "",
          "type": "uint256[]"
        }
      ],
      "stateMutability": "view",
      "type": "function"
    },
    {
      "inputs": [
        {
          "internalType": "address",
          "name": "account",
          "type": "address"
        },
        {
          "internalType": "address",
          "name": "operator",
          "type": "address"
        }
      ],
      "name": "isApprovedForAll",
      "outputs": [
        {
          "internalType": "bool",
          "name": "",
          "type": "bool"
        }
      ],
      "stateMutability": "view",
      "type": "function"
    },
    {
      "inputs": [
        {
          "internalType": "address",
          "name": "from",
          "type": "address"
        },
        {
          "internalType": "address",
          "name": "to",
          "type": "address"
        },
        {
          "internalType": "uint256[]",
          "name": "ids",
          "type": "uint256[]"
        },
        {
          "internalType": "uint256[]",
          "name": "amounts",
          "type": "uint256[]"
        },
        {
          "internalType": "bytes",
          "name": "data",
          "type": "bytes"
        }
      ],
      "name": "safeBatchTransferFrom",
      "outputs": [],
      "stateMutability": "nonpayable",
      "type": "function"
    },
    {
      "inputs": [
        {
          "internalType": "address",
          "name": "from",
          "type": "address"
        },
        {
          "internalType": "address",
          "name": "to",
          "type": "address"
        },
        {
          "internalType": "uint256",
          "name": "id",
          "type": "uint256"
        },
        {
          "internalType": "uint256",
          "name": "amount",
          "type": "uint256"
        },
        {
          "internalType": "bytes",
          "name": "data",
          "type": "bytes"
        }
      ],
      "name": "safeTransferFrom",
      "outputs": [],
      "stateMutability": "nonpayable",
      "type": "function"
    },
    {
      "inputs": [
        {
          "internalType": "address",
          "name": "operator",
          "type": "address"
        },
        {
          "internalType": "bool",
          "name": "approved",
          "type": "bool"
        }
      ],
      "name": "setApprovalForAll",
      "outputs": [],
      "stateMutability": "nonpayable",
      "type": "function"
    },
    {
      "inputs": [
        {
          "internalType": "bytes4",
          "name": "interfaceId",
          "type": "bytes4"
        }
      ],
      "name": "supportsInterface",
      "outputs": [
        {
          "internalType": "bool",
          "name": "",
          "type": "bool"
        }
      ],
      "stateMutability": "view",
      "type": "function"
    },
    {
      "inputs": [
        {
          "internalType": "uint256",
          "name": "",
          "type": "uint256"
        }
      ],
      "name": "uri",
      "outputs": [
        {
          "internalType": "string",
          "name": "",
          "type": "string"
        }
      ],
      "stateMutability": "view",
      "type": "function"
    }
  ],
  "bytecode": "0x60806040523480156200001157600080fd5b50604051806080016040528060508152602001620035a2605091396200003d816200012560201b60201c565b50620000643360006103e8604051806020016040528060008152506200013a60201b60201c565b6200008a3360016107d0604051806020016040528060008152506200013a60201b60201c565b620000b0336002610bb8604051806020016040528060008152506200013a60201b60201c565b620000d53360036001604051806020016040528060008152506200013a60201b60201c565b620000fa3360046002604051806020016040528060008152506200013a60201b60201c565b6200011f3360056003604051806020016040528060008152506200013a60201b60201c565b62000f05565b806002908162000136919062000825565b5050565b600073ffffffffffffffffffffffffffffffffffffffff168473ffffffffffffffffffffffffffffffffffffffff1603620001ac576040517f08c379a0000000000000000000000000000000000000000000000000000000008152600401620001a39062000993565b60405180910390fd5b6000620001be620002fe60201b60201c565b9050620001f781600087620001d9886200030660201b60201c565b620001ea886200030660201b60201c565b876200038760201b60201c565b8260008086815260200190815260200160002060008773ffffffffffffffffffffffffffffffffffffffff1673ffffffffffffffffffffffffffffffffffffffff1681526020019081526020016000206000828254620002589190620009e4565b925050819055508473ffffffffffffffffffffffffffffffffffffffff16600073ffffffffffffffffffffffffffffffffffffffff168273ffffffffffffffffffffffffffffffffffffffff167fc3d58168c5ae7397731d063d5bbf3d657854427343f4c083240f7aacaa2d0f628787604051620002d892919062000a30565b60405180910390a4620002f7816000878787876200038f60201b60201c565b5050505050565b600033905090565b60606000600167ffffffffffffffff811115620003285762000327620005b6565b5b604051908082528060200260200182016040528015620003575781602001602082028036833780820191505090505b509050828160008151811062000372576200037162000a5d565b5b60200260200101818152505080915050919050565b505050505050565b620003bb8473ffffffffffffffffffffffffffffffffffffffff166200058860201b620008471760201c565b1562000580578373ffffffffffffffffffffffffffffffffffffffff1663f23a6e6187878686866040518663ffffffff1660e01b81526004016200040495949392919062000b6b565b6020604051808303816000875af19250505080156200044357506040513d601f19601f8201168201806040525081019062000440919062000c3b565b60015b620004f4576200045262000c7a565b806308c379a003620004b557506200046962000cd5565b80620004765750620004b7565b806040517f08c379a0000000000000000000000000000000000000000000000000000000008152600401620004ac919062000db1565b60405180910390fd5b505b6040517f08c379a0000000000000000000000000000000000000000000000000000000008152600401620004eb9062000e4b565b60405180910390fd5b63f23a6e6160e01b7bffffffffffffffffffffffffffffffffffffffffffffffffffffffff1916817bffffffffffffffffffffffffffffffffffffffffffffffffffffffff1916146200057e576040517f08c379a0000000000000000000000000000000000000000000000000000000008152600401620005759062000ee3565b60405180910390fd5b505b505050505050565b6000808273ffffffffffffffffffffffffffffffffffffffff163b119050919050565b600081519050919050565b7f4e487b7100000000000000000000000000000000000000000000000000000000600052604160045260246000fd5b7f4e487b7100000000000000000000000000000000000000000000000000000000600052602260045260246000fd5b600060028204905060018216806200062d57607f821691505b602082108103620006435762000642620005e5565b5b50919050565b60008190508160005260206000209050919050565b60006020601f8301049050919050565b600082821b905092915050565b600060088302620006ad7fffffffffffffffffffffffffffffffffffffffffffffffffffffffffffffffff826200066e565b620006b986836200066e565b95508019841693508086168417925050509392505050565b6000819050919050565b6000819050919050565b60006200070662000700620006fa84620006d1565b620006db565b620006d1565b9050919050565b6000819050919050565b6200072283620006e5565b6200073a62000731826200070d565b8484546200067b565b825550505050565b600090565b6200075162000742565b6200075e81848462000717565b505050565b5b8181101562000786576200077a60008262000747565b60018101905062000764565b5050565b601f821115620007d5576200079f8162000649565b620007aa846200065e565b81016020851015620007ba578190505b620007d2620007c9856200065e565b83018262000763565b50505b505050565b600082821c905092915050565b6000620007fa60001984600802620007da565b1980831691505092915050565b6000620008158383620007e7565b9150826002028217905092915050565b6200083082620005ab565b67ffffffffffffffff8111156200084c576200084b620005b6565b5b62000858825462000614565b620008658282856200078a565b600060209050601f8311600181146200089d576000841562000888578287015190505b62000894858262000807565b86555062000904565b601f198416620008ad8662000649565b60005b82811015620008d757848901518255600182019150602085019450602081019050620008b0565b86831015620008f75784890151620008f3601f891682620007e7565b8355505b6001600288020188555050505b505050505050565b600082825260208201905092915050565b7f455243313135353a206d696e7420746f20746865207a65726f2061646472657360008201527f7300000000000000000000000000000000000000000000000000000000000000602082015250565b60006200097b6021836200090c565b915062000988826200091d565b604082019050919050565b60006020820190508181036000830152620009ae816200096c565b9050919050565b7f4e487b7100000000000000000000000000000000000000000000000000000000600052601160045260246000fd5b6000620009f182620006d1565b9150620009fe83620006d1565b925082820190508082111562000a195762000a18620009b5565b5b92915050565b62000a2a81620006d1565b82525050565b600060408201905062000a47600083018562000a1f565b62000a56602083018462000a1f565b9392505050565b7f4e487b7100000000000000000000000000000000000000000000000000000000600052603260045260246000fd5b600073ffffffffffffffffffffffffffffffffffffffff82169050919050565b600062000ab98262000a8c565b9050919050565b62000acb8162000aac565b82525050565b600081519050919050565b600082825260208201905092915050565b60005b8381101562000b0d57808201518184015260208101905062000af0565b60008484015250505050565b6000601f19601f8301169050919050565b600062000b378262000ad1565b62000b43818562000adc565b935062000b5581856020860162000aed565b62000b608162000b19565b840191505092915050565b600060a08201905062000b82600083018862000ac0565b62000b91602083018762000ac0565b62000ba0604083018662000a1f565b62000baf606083018562000a1f565b818103608083015262000bc3818462000b2a565b90509695505050505050565b6000604051905090565b600080fd5b60007fffffffff0000000000000000000000000000000000000000000000000000000082169050919050565b62000c158162000bde565b811462000c2157600080fd5b50565b60008151905062000c358162000c0a565b92915050565b60006020828403121562000c545762000c5362000bd9565b5b600062000c648482850162000c24565b91505092915050565b60008160e01c9050919050565b600060033d111562000c9c5760046000803e62000c9960005162000c6d565b90505b90565b62000caa8262000b19565b810181811067ffffffffffffffff8211171562000ccc5762000ccb620005b6565b5b80604052505050565b600060443d1062000d6d5762000cea62000bcf565b60043d036004823e80513d602482011167ffffffffffffffff8211171562000d1457505062000d6d565b808201805167ffffffffffffffff81111562000d34575050505062000d6d565b80602083010160043d03850181111562000d5357505050505062000d6d565b62000d648260200185018662000c9f565b82955050505050505b90565b600062000d7d82620005ab565b62000d8981856200090c565b935062000d9b81856020860162000aed565b62000da68162000b19565b840191505092915050565b6000602082019050818103600083015262000dcd818462000d70565b905092915050565b7f455243313135353a207472616e7366657220746f206e6f6e204552433131353560008201527f526563656976657220696d706c656d656e746572000000000000000000000000602082015250565b600062000e336034836200090c565b915062000e408262000dd5565b604082019050919050565b6000602082019050818103600083015262000e668162000e24565b9050919050565b7f455243313135353a204552433131353552656365697665722072656a6563746560008201527f6420746f6b656e73000000000000000000000000000000000000000000000000602082015250565b600062000ecb6028836200090c565b915062000ed88262000e6d565b604082019050919050565b6000602082019050818103600083015262000efe8162000ebc565b9050919050565b61268d8062000f156000396000f3fe608060405234801561001057600080fd5b50600436106100e95760003560e01c8063a22cb4651161008c578063e3f8f55511610066578063e3f8f5551461025e578063e985e9c51461027c578063ebc4527d146102ac578063f242432a146102ca576100e9565b8063a22cb46514610206578063a5d3670a14610222578063ccc3aeec14610240576100e9565b80632eb2c2d6116100c85780632eb2c2d61461017e5780634e1273f41461019a57806380d25352146101ca5780639f2685f7146101e8576100e9565b8062fdd58e146100ee57806301ffc9a71461011e5780630e89341c1461014e575b600080fd5b610108600480360381019061010391906114b4565b6102e6565b6040516101159190611503565b60405180910390f35b61013860048036038101906101339190611576565b6103ae565b60405161014591906115be565b60405180910390f35b610168600480360381019061016391906115d9565b610490565b6040516101759190611696565b60405180910390f35b610198600480360381019061019391906118b5565b610524565b005b6101b460048036038101906101af9190611a47565b6105c5565b6040516101c19190611b7d565b60405180910390f35b6101d26106de565b6040516101df9190611503565b60405180910390f35b6101f06106e3565b6040516101fd9190611503565b60405180910390f35b610220600480360381019061021b9190611bcb565b6106e8565b005b61022a6106fe565b6040516102379190611503565b60405180910390f35b610248610703565b6040516102559190611503565b60405180910390f35b610266610708565b6040516102739190611503565b60405180910390f35b61029660048036038101906102919190611c0b565b61070d565b6040516102a391906115be565b60405180910390f35b6102b46107a1565b6040516102c19190611503565b60405180910390f35b6102e460048036038101906102df9190611c4b565b6107a6565b005b60008073ffffffffffffffffffffffffffffffffffffffff168373ffffffffffffffffffffffffffffffffffffffff1603610356576040517f08c379a000000000000000000000000000000000000000000000000000000000815260040161034d90611d54565b60405180910390fd5b60008083815260200190815260200160002060008473ffffffffffffffffffffffffffffffffffffffff1673ffffffffffffffffffffffffffffffffffffffff16815260200190815260200160002054905092915050565b60007fd9b67a26000000000000000000000000000000000000000000000000000000007bffffffffffffffffffffffffffffffffffffffffffffffffffffffff1916827bffffffffffffffffffffffffffffffffffffffffffffffffffffffff1916148061047957507f0e89341c000000000000000000000000000000000000000000000000000000007bffffffffffffffffffffffffffffffffffffffffffffffffffffffff1916827bffffffffffffffffffffffffffffffffffffffffffffffffffffffff1916145b8061048957506104888261086a565b5b9050919050565b60606002805461049f90611da3565b80601f01602080910402602001604051908101604052809291908181526020018280546104cb90611da3565b80156105185780601f106104ed57610100808354040283529160200191610518565b820191906000526020600020905b8154815290600101906020018083116104fb57829003601f168201915b50505050509050919050565b61052c6108d4565b73ffffffffffffffffffffffffffffffffffffffff168573ffffffffffffffffffffffffffffffffffffffff16148061057257506105718561056c6108d4565b61070d565b5b6105b1576040517f08c379a00000000000000000000000000000000000000000000000000000000081526004016105a890611e46565b60405180910390fd5b6105be85858585856108dc565b5050505050565b6060815183511461060b576040517f08c379a000000000000000000000000000000000000000000000000000000000815260040161060290611ed8565b60405180910390fd5b6000835167ffffffffffffffff811115610628576106276116bd565b5b6040519080825280602002602001820160405280156106565781602001602082028036833780820191505090505b50905060005b84518110156106d3576106a385828151811061067b5761067a611ef8565b5b602002602001015185838151811061069657610695611ef8565b5b60200260200101516102e6565b8282815181106106b6576106b5611ef8565b5b602002602001018181525050806106cc90611f56565b905061065c565b508091505092915050565b600581565b600181565b6106fa6106f36108d4565b8383610bef565b5050565b600381565b600081565b600281565b6000600160008473ffffffffffffffffffffffffffffffffffffffff1673ffffffffffffffffffffffffffffffffffffffff16815260200190815260200160002060008373ffffffffffffffffffffffffffffffffffffffff1673ffffffffffffffffffffffffffffffffffffffff16815260200190815260200160002060009054906101000a900460ff16905092915050565b600481565b6107ae6108d4565b73ffffffffffffffffffffffffffffffffffffffff168573ffffffffffffffffffffffffffffffffffffffff1614806107f457506107f3856107ee6108d4565b61070d565b5b610833576040517f08c379a000000000000000000000000000000000000000000000000000000000815260040161082a90612010565b60405180910390fd5b6108408585858585610d5b565b5050505050565b6000808273ffffffffffffffffffffffffffffffffffffffff163b119050919050565b60007f01ffc9a7000000000000000000000000000000000000000000000000000000007bffffffffffffffffffffffffffffffffffffffffffffffffffffffff1916827bffffffffffffffffffffffffffffffffffffffffffffffffffffffff1916149050919050565b600033905090565b8151835114610920576040517f08c379a0000000000000000000000000000000000000000000000000000000008152600401610917906120a2565b60405180910390fd5b600073ffffffffffffffffffffffffffffffffffffffff168473ffffffffffffffffffffffffffffffffffffffff160361098f576040517f08c379a000000000000000000000000000000000000000000000000000000000815260040161098690612134565b60405180910390fd5b60006109996108d4565b90506109a9818787878787610fdc565b60005b8451811015610b5a5760008582815181106109ca576109c9611ef8565b5b6020026020010151905060008583815181106109e9576109e8611ef8565b5b60200260200101519050600080600084815260200190815260200160002060008b73ffffffffffffffffffffffffffffffffffffffff1673ffffffffffffffffffffffffffffffffffffffff16815260200190815260200160002054905081811015610a8a576040517f08c379a0000000000000000000000000000000000000000000000000000000008152600401610a81906121c6565b60405180910390fd5b81810360008085815260200190815260200160002060008c73ffffffffffffffffffffffffffffffffffffffff1673ffffffffffffffffffffffffffffffffffffffff168152602001908152602001600020819055508160008085815260200190815260200160002060008b73ffffffffffffffffffffffffffffffffffffffff1673ffffffffffffffffffffffffffffffffffffffff1681526020019081526020016000206000828254610b3f91906121e6565b9250508190555050505080610b5390611f56565b90506109ac565b508473ffffffffffffffffffffffffffffffffffffffff168673ffffffffffffffffffffffffffffffffffffffff168273ffffffffffffffffffffffffffffffffffffffff167f4a39dc06d4c0dbc64b70af90fd698a233a518aa5d07e595d983b8c0526c8f7fb8787604051610bd192919061221a565b60405180910390a4610be7818787878787610fe4565b505050505050565b8173ffffffffffffffffffffffffffffffffffffffff168373ffffffffffffffffffffffffffffffffffffffff1603610c5d576040517f08c379a0000000000000000000000000000000000000000000000000000000008152600401610c54906122c3565b60405180910390fd5b80600160008573ffffffffffffffffffffffffffffffffffffffff1673ffffffffffffffffffffffffffffffffffffffff16815260200190815260200160002060008473ffffffffffffffffffffffffffffffffffffffff1673ffffffffffffffffffffffffffffffffffffffff16815260200190815260200160002060006101000a81548160ff0219169083151502179055508173ffffffffffffffffffffffffffffffffffffffff168373ffffffffffffffffffffffffffffffffffffffff167f17307eab39ab6107e8899845ad3d59bd9653f200f220920489ca2b5937696c3183604051610d4e91906115be565b60405180910390a3505050565b600073ffffffffffffffffffffffffffffffffffffffff168473ffffffffffffffffffffffffffffffffffffffff1603610dca576040517f08c379a0000000000000000000000000000000000000000000000000000000008152600401610dc190612134565b60405180910390fd5b6000610dd46108d4565b9050610df4818787610de5886111bb565b610dee886111bb565b87610fdc565b600080600086815260200190815260200160002060008873ffffffffffffffffffffffffffffffffffffffff1673ffffffffffffffffffffffffffffffffffffffff16815260200190815260200160002054905083811015610e8b576040517f08c379a0000000000000000000000000000000000000000000000000000000008152600401610e82906121c6565b60405180910390fd5b83810360008087815260200190815260200160002060008973ffffffffffffffffffffffffffffffffffffffff1673ffffffffffffffffffffffffffffffffffffffff168152602001908152602001600020819055508360008087815260200190815260200160002060008873ffffffffffffffffffffffffffffffffffffffff1673ffffffffffffffffffffffffffffffffffffffff1681526020019081526020016000206000828254610f4091906121e6565b925050819055508573ffffffffffffffffffffffffffffffffffffffff168773ffffffffffffffffffffffffffffffffffffffff168373ffffffffffffffffffffffffffffffffffffffff167fc3d58168c5ae7397731d063d5bbf3d657854427343f4c083240f7aacaa2d0f628888604051610fbd9291906122e3565b60405180910390a4610fd3828888888888611235565b50505050505050565b505050505050565b6110038473ffffffffffffffffffffffffffffffffffffffff16610847565b156111b3578373ffffffffffffffffffffffffffffffffffffffff1663bc197c8187878686866040518663ffffffff1660e01b8152600401611049959493929190612370565b6020604051808303816000875af192505050801561108557506040513d601f19601f8201168201806040525081019061108291906123ed565b60015b61112a57611091612427565b806308c379a0036110ed57506110a5612449565b806110b057506110ef565b806040517f08c379a00000000000000000000000000000000000000000000000000000000081526004016110e49190611696565b60405180910390fd5b505b6040517f08c379a00000000000000000000000000000000000000000000000000000000081526004016111219061254b565b60405180910390fd5b63bc197c8160e01b7bffffffffffffffffffffffffffffffffffffffffffffffffffffffff1916817bffffffffffffffffffffffffffffffffffffffffffffffffffffffff1916146111b1576040517f08c379a00000000000000000000000000000000000000000000000000000000081526004016111a8906125dd565b60405180910390fd5b505b505050505050565b60606000600167ffffffffffffffff8111156111da576111d96116bd565b5b6040519080825280602002602001820160405280156112085781602001602082028036833780820191505090505b50905082816000815181106112205761121f611ef8565b5b60200260200101818152505080915050919050565b6112548473ffffffffffffffffffffffffffffffffffffffff16610847565b15611404578373ffffffffffffffffffffffffffffffffffffffff1663f23a6e6187878686866040518663ffffffff1660e01b815260040161129a9594939291906125fd565b6020604051808303816000875af19250505080156112d657506040513d601f19601f820116820180604052508101906112d391906123ed565b60015b61137b576112e2612427565b806308c379a00361133e57506112f6612449565b806113015750611340565b806040517f08c379a00000000000000000000000000000000000000000000000000000000081526004016113359190611696565b60405180910390fd5b505b6040517f08c379a00000000000000000000000000000000000000000000000000000000081526004016113729061254b565b60405180910390fd5b63f23a6e6160e01b7bffffffffffffffffffffffffffffffffffffffffffffffffffffffff1916817bffffffffffffffffffffffffffffffffffffffffffffffffffffffff191614611402576040517f08c379a00000000000000000000000000000000000000000000000000000000081526004016113f9906125dd565b60405180910390fd5b505b505050505050565b6000604051905090565b600080fd5b600080fd5b600073ffffffffffffffffffffffffffffffffffffffff82169050919050565b600061144b82611420565b9050919050565b61145b81611440565b811461146657600080fd5b50565b60008135905061147881611452565b92915050565b6000819050919050565b6114918161147e565b811461149c57600080fd5b50565b6000813590506114ae81611488565b92915050565b600080604083850312156114cb576114ca611416565b5b60006114d985828601611469565b92505060206114ea8582860161149f565b9150509250929050565b6114fd8161147e565b82525050565b600060208201905061151860008301846114f4565b92915050565b60007fffffffff0000000000000000000000000000000000000000000000000000000082169050919050565b6115538161151e565b811461155e57600080fd5b50565b6000813590506115708161154a565b92915050565b60006020828403121561158c5761158b611416565b5b600061159a84828501611561565b91505092915050565b60008115159050919050565b6115b8816115a3565b82525050565b60006020820190506115d360008301846115af565b92915050565b6000602082840312156115ef576115ee611416565b5b60006115fd8482850161149f565b91505092915050565b600081519050919050565b600082825260208201905092915050565b60005b83811015611640578082015181840152602081019050611625565b60008484015250505050565b6000601f19601f8301169050919050565b600061166882611606565b6116728185611611565b9350611682818560208601611622565b61168b8161164c565b840191505092915050565b600060208201905081810360008301526116b0818461165d565b905092915050565b600080fd5b7f4e487b7100000000000000000000000000000000000000000000000000000000600052604160045260246000fd5b6116f58261164c565b810181811067ffffffffffffffff82111715611714576117136116bd565b5b80604052505050565b600061172761140c565b905061173382826116ec565b919050565b600067ffffffffffffffff821115611753576117526116bd565b5b602082029050602081019050919050565b600080fd5b600061177c61177784611738565b61171d565b9050808382526020820190506020840283018581111561179f5761179e611764565b5b835b818110156117c857806117b4888261149f565b8452602084019350506020810190506117a1565b5050509392505050565b600082601f8301126117e7576117e66116b8565b5b81356117f7848260208601611769565b91505092915050565b600080fd5b600067ffffffffffffffff8211156118205761181f6116bd565b5b6118298261164c565b9050602081019050919050565b82818337600083830152505050565b600061185861185384611805565b61171d565b90508281526020810184848401111561187457611873611800565b5b61187f848285611836565b509392505050565b600082601f83011261189c5761189b6116b8565b5b81356118ac848260208601611845565b91505092915050565b600080600080600060a086880312156118d1576118d0611416565b5b60006118df88828901611469565b95505060206118f088828901611469565b945050604086013567ffffffffffffffff8111156119115761191061141b565b5b61191d888289016117d2565b935050606086013567ffffffffffffffff81111561193e5761193d61141b565b5b61194a888289016117d2565b925050608086013567ffffffffffffffff81111561196b5761196a61141b565b5b61197788828901611887565b9150509295509295909350565b600067ffffffffffffffff82111561199f5761199e6116bd565b5b602082029050602081019050919050565b60006119c36119be84611984565b61171d565b905080838252602082019050602084028301858111156119e6576119e5611764565b5b835b81811015611a0f57806119fb8882611469565b8452602084019350506020810190506119e8565b5050509392505050565b600082601f830112611a2e57611a2d6116b8565b5b8135611a3e8482602086016119b0565b91505092915050565b60008060408385031215611a5e57611a5d611416565b5b600083013567ffffffffffffffff811115611a7c57611a7b61141b565b5b611a8885828601611a19565b925050602083013567ffffffffffffffff811115611aa957611aa861141b565b5b611ab5858286016117d2565b9150509250929050565b600081519050919050565b600082825260208201905092915050565b6000819050602082019050919050565b611af48161147e565b82525050565b6000611b068383611aeb565b60208301905092915050565b6000602082019050919050565b6000611b2a82611abf565b611b348185611aca565b9350611b3f83611adb565b8060005b83811015611b70578151611b578882611afa565b9750611b6283611b12565b925050600181019050611b43565b5085935050505092915050565b60006020820190508181036000830152611b978184611b1f565b905092915050565b611ba8816115a3565b8114611bb357600080fd5b50565b600081359050611bc581611b9f565b92915050565b60008060408385031215611be257611be1611416565b5b6000611bf085828601611469565b9250506020611c0185828601611bb6565b9150509250929050565b60008060408385031215611c2257611c21611416565b5b6000611c3085828601611469565b9250506020611c4185828601611469565b9150509250929050565b600080600080600060a08688031215611c6757611c66611416565b5b6000611c7588828901611469565b9550506020611c8688828901611469565b9450506040611c978882890161149f565b9350506060611ca88882890161149f565b925050608086013567ffffffffffffffff811115611cc957611cc861141b565b5b611cd588828901611887565b9150509295509295909350565b7f455243313135353a2062616c616e636520717565727920666f7220746865207a60008201527f65726f2061646472657373000000000000000000000000000000000000000000602082015250565b6000611d3e602b83611611565b9150611d4982611ce2565b604082019050919050565b60006020820190508181036000830152611d6d81611d31565b9050919050565b7f4e487b7100000000000000000000000000000000000000000000000000000000600052602260045260246000fd5b60006002820490506001821680611dbb57607f821691505b602082108103611dce57611dcd611d74565b5b50919050565b7f455243313135353a207472616e736665722063616c6c6572206973206e6f742060008201527f6f776e6572206e6f7220617070726f7665640000000000000000000000000000602082015250565b6000611e30603283611611565b9150611e3b82611dd4565b604082019050919050565b60006020820190508181036000830152611e5f81611e23565b9050919050565b7f455243313135353a206163636f756e747320616e6420696473206c656e67746860008201527f206d69736d617463680000000000000000000000000000000000000000000000602082015250565b6000611ec2602983611611565b9150611ecd82611e66565b604082019050919050565b60006020820190508181036000830152611ef181611eb5565b9050919050565b7f4e487b7100000000000000000000000000000000000000000000000000000000600052603260045260246000fd5b7f4e487b7100000000000000000000000000000000000000000000000000000000600052601160045260246000fd5b6000611f618261147e565b91507fffffffffffffffffffffffffffffffffffffffffffffffffffffffffffffffff8203611f9357611f92611f27565b5b600182019050919050565b7f455243313135353a2063616c6c6572206973206e6f74206f776e6572206e6f7260008201527f20617070726f7665640000000000000000000000000000000000000000000000602082015250565b6000611ffa602983611611565b915061200582611f9e565b604082019050919050565b6000602082019050818103600083015261202981611fed565b9050919050565b7f455243313135353a2069647320616e6420616d6f756e7473206c656e6774682060008201527f6d69736d61746368000000000000000000000000000000000000000000000000602082015250565b600061208c602883611611565b915061209782612030565b604082019050919050565b600060208201905081810360008301526120bb8161207f565b9050919050565b7f455243313135353a207472616e7366657220746f20746865207a65726f20616460008201527f6472657373000000000000000000000000000000000000000000000000000000602082015250565b600061211e602583611611565b9150612129826120c2565b604082019050919050565b6000602082019050818103600083015261214d81612111565b9050919050565b7f455243313135353a20696e73756666696369656e742062616c616e636520666f60008201527f72207472616e7366657200000000000000000000000000000000000000000000602082015250565b60006121b0602a83611611565b91506121bb82612154565b604082019050919050565b600060208201905081810360008301526121df816121a3565b9050919050565b60006121f18261147e565b91506121fc8361147e565b925082820190508082111561221457612213611f27565b5b92915050565b600060408201905081810360008301526122348185611b1f565b905081810360208301526122488184611b1f565b90509392505050565b7f455243313135353a2073657474696e6720617070726f76616c2073746174757360008201527f20666f722073656c660000000000000000000000000000000000000000000000602082015250565b60006122ad602983611611565b91506122b882612251565b604082019050919050565b600060208201905081810360008301526122dc816122a0565b9050919050565b60006040820190506122f860008301856114f4565b61230560208301846114f4565b9392505050565b61231581611440565b82525050565b600081519050919050565b600082825260208201905092915050565b60006123428261231b565b61234c8185612326565b935061235c818560208601611622565b6123658161164c565b840191505092915050565b600060a082019050612385600083018861230c565b612392602083018761230c565b81810360408301526123a48186611b1f565b905081810360608301526123b88185611b1f565b905081810360808301526123cc8184612337565b90509695505050505050565b6000815190506123e78161154a565b92915050565b60006020828403121561240357612402611416565b5b6000612411848285016123d8565b91505092915050565b60008160e01c9050919050565b600060033d11156124465760046000803e61244360005161241a565b90505b90565b600060443d106124d65761245b61140c565b60043d036004823e80513d602482011167ffffffffffffffff821117156124835750506124d6565b808201805167ffffffffffffffff8111156124a157505050506124d6565b80602083010160043d0385018111156124be5750505050506124d6565b6124cd826020018501866116ec565b82955050505050505b90565b7f455243313135353a207472616e7366657220746f206e6f6e204552433131353560008201527f526563656976657220696d706c656d656e746572000000000000000000000000602082015250565b6000612535603483611611565b9150612540826124d9565b604082019050919050565b6000602082019050818103600083015261256481612528565b9050919050565b7f455243313135353a204552433131353552656365697665722072656a6563746560008201527f6420746f6b656e73000000000000000000000000000000000000000000000000602082015250565b60006125c7602883611611565b91506125d28261256b565b604082019050919050565b600060208201905081810360008301526125f6816125ba565b9050919050565b600060a082019050612612600083018861230c565b61261f602083018761230c565b61262c60408301866114f4565b61263960608301856114f4565b818103608083015261264b8184612337565b9050969550505050505056fea2646970667358221220b88fc5870a13544a6b598a14925c7333fa89ba8544dc8ad7404a3c4a16af5d2964736f6c6343000812003368747470733a2f2f697066732e696f2f697066732f626166796265696376666576746d356869333367756879706b6677346776327570616268736c746366797376796462736263676d72756a32773571",
  "immutableReferences": {},
  "source": "// SPDX-License-Identifier: MIT\r\npragma solidity ^0.8.10;\r\n\r\nimport \"@openzeppelin/contracts/token/ERC1155/ERC1155.sol\";\r\ncontract Crops is ERC1155(\"https://ipfs.io/ipfs/bafybeicvfevtm5hi33guhypkfw4gv2upabhsltcfysvydbsbcgmruj2w5q\") {\r\n    uint256 public constant CARROT = 0;\r\n    uint256 public constant POTATO = 1;\r\n    uint256 public constant CORN = 2;\r\n    uint256 public constant GOLDEN_CARROT = 3;\r\n    uint256 public constant SPROUTING_POTATO = 4;\r\n    uint256 public constant RAINBOW_CORN = 5;\r\n    constructor() {\r\n        _mint(msg.sender, CARROT, 1000, \"\");\r\n        _mint(msg.sender, POTATO, 2000, \"\");\r\n        _mint(msg.sender, CORN, 3000, \"\");\r\n        _mint(msg.sender, GOLDEN_CARROT, 1, \"\");\r\n        _mint(msg.sender, SPROUTING_POTATO, 2, \"\");\r\n        _mint(msg.sender, RAINBOW_CORN, 3, \"\");\r\n    }\r\n}",
  "sourcePath": "/mnt/c/pr0/nft-crop-farm/src/contracts/Crops.sol",
  "compiler": {
    "name": "solc",
    "version": "0.8.18+commit.87f61d96.Emscripten.clang"
  },
  "schemaVersion": "3.4.4",
  "updatedAt": "2023-02-08T20:28:44.387Z",
  "devdoc": {
    "events": {
      "ApprovalForAll(address,address,bool)": {
        "details": "Emitted when `account` grants or revokes permission to `operator` to transfer their tokens, according to `approved`."
      },
      "TransferBatch(address,address,address,uint256[],uint256[])": {
        "details": "Equivalent to multiple {TransferSingle} events, where `operator`, `from` and `to` are the same for all transfers."
      },
      "TransferSingle(address,address,address,uint256,uint256)": {
        "details": "Emitted when `value` tokens of token type `id` are transferred from `from` to `to` by `operator`."
      },
      "URI(string,uint256)": {
        "details": "Emitted when the URI for token type `id` changes to `value`, if it is a non-programmatic URI. If an {URI} event was emitted for `id`, the standard https://eips.ethereum.org/EIPS/eip-1155#metadata-extensions[guarantees] that `value` will equal the value returned by {IERC1155MetadataURI-uri}."
      }
    },
    "kind": "dev",
    "methods": {
      "balanceOf(address,uint256)": {
        "details": "See {IERC1155-balanceOf}. Requirements: - `account` cannot be the zero address."
      },
      "balanceOfBatch(address[],uint256[])": {
        "details": "See {IERC1155-balanceOfBatch}. Requirements: - `accounts` and `ids` must have the same length."
      },
      "isApprovedForAll(address,address)": {
        "details": "See {IERC1155-isApprovedForAll}."
      },
      "safeBatchTransferFrom(address,address,uint256[],uint256[],bytes)": {
        "details": "See {IERC1155-safeBatchTransferFrom}."
      },
      "safeTransferFrom(address,address,uint256,uint256,bytes)": {
        "details": "See {IERC1155-safeTransferFrom}."
      },
      "setApprovalForAll(address,bool)": {
        "details": "See {IERC1155-setApprovalForAll}."
      },
      "supportsInterface(bytes4)": {
        "details": "See {IERC165-supportsInterface}."
      },
      "uri(uint256)": {
        "details": "See {IERC1155MetadataURI-uri}. This implementation returns the same URI for *all* token types. It relies on the token type ID substitution mechanism https://eips.ethereum.org/EIPS/eip-1155#metadata[defined in the EIP]. Clients calling this function must replace the `\\{id\\}` substring with the actual token type ID."
      }
    },
    "version": 1
  },
  "userdoc": {
    "kind": "user",
    "methods": {},
    "version": 1
  }
}